:020000040800F2
:100000000050002051010008D52500087B4D000854
:10001000D5250008D5250008D525000800000000DA
:10002000000000000000000000000000D5250008CE
:10003000D525000800000000D5250008D5250008BA
:1000400000000000000000000000000000000000B0
:1000500000000000000000000000000000000000A0
:100060000000000000000000000000000000000090
:100070000000000000000000000000000000000080
:100080000000000000000000000000000000000070
:100090000000000000000000000000000000000060
:1000A0000000000000000000000000000000000050
:1000B0000000000000000000000000000000000040
:1000C0000000000000000000000000000000000030
:1000D000000000006B2B0008000000000000000082
:1000E0000000000000000000000000000000000010
:1000F0000000000000000000000000000000000000
:1001000000000000000000000000000000000000EF
:1001100000000000000000000000000000000000DF
:1001200000000000000000000000000000000000CF
:1001300000000000000000000000000000000000BF
:1001400000000000000000000000000000000000AF
:1001500002F043FA084809490022814201D004C054
:10016000FBE707480749084A814202D008CA08C08D
:10017000FAE702F017FA00DE0000002084000020F9
:100180000000002000000020CC580008F0B503AFAC
:100190002DE9000788B0884681460025002000210F
:1001A0004FF448724FF4F073009502F099FE4FF44B
:1001B0007844C820A0214FF4C872A02300944FF0C7
:1001C000C80A02F08DFECA20A2214FF4C6729C23F9
:1001D000009502F085FE44F680564846C0F60006BB
:1001E0000522314602F0FCF9C0F5C870BE218DE849
:1001F0003200052281B200EBD130314600B20AEB69
:100200006003484602F012FA46F6437003AEC6F2A7
:1002100064500722039042F23A00ADF8100048F013
:1002200030008DF81200484631468DF81B50CDF84D
:100230001750CDF8135002F0D3F9C0F5C8704FF63F
:10024000FF71DA220295CDE9002181B200EBD130B5
:100250003146072200B20AEB6003484602F0E6F995
:10026000A8F1010044F65C61C0F60001C0B251F88B
:10027000206044F64461C0F6000151F82040484631
:100280003146224602F0ACF9C0F5C8704CF2186154
:10029000F6220295CDE9002181B200EBD130314642
:1002A000224600B20AEB6003484602F0BFF94FF461
:1002B0008570A7F11B0127F81B0C43F60000C4F260
:1002C000010007F8198C4A5D03681B06FCD501354F
:1002D0004260032DF7D108B0BDE80007F0BDD4D4CB
:1002E000B0B502AFADF58B4D86B042F200000223EF
:1002F000C4F2020045F23D0201684FF6044641F2A5
:100300000005CFF6FF7663F30201016041F20C00B5
:10031000C4F20105C4F2020042F60049C168C4F209
:10032000010911430422C160C4F20102116863F3A0
:100330001A61116040F600014FF03333C4F201013D
:10034000C1F80034AB5143F23433CBF2B3430B600A
:1003500043F2BB464B68C3F2030603F07F633343AB
:100360004B6041F6140340F600760B610A234B61A3
:1003700044F27743C4F24443CFF200062B606B682B
:10038000334043F24406C0F2334633436B6041F2DC
:100390001003C4F201034FF480565E6042F203067C
:1003A0001E604FF07F761E600325D3F8F06365F37F
:1003B0000B26C3F8F0631368012643F4406313600F
:1003C000026942F002020261426842F0020322F036
:1003D0000202436046F66803426040F20042C4F203
:1003E00000029361D361002313629362166047F2A7
:1003F0000002C4F20002166846F480761660426974
:1004000022F001024261826842F00102826040F201
:100410001732C9F80034C9F8002440F25732C9F83D
:10042000002410224A61D9F808249207FBD543F230
:100430000C02B723C4F201021360D9F80834DB07B9
:10044000FBD01268002510220DF1040E0A6143F65C
:100450000002C4F2010240F2AA31D56044F674648D
:10046000916042F22C0115610EF512565561C0F6ED
:100470000004D1604EF20411CEF200010A6842F08D
:1004800020020A60C16841F40061C160016841F462
:100490000062026021F40061016068206B21C9F8EC
:1004A00018000120C9F82000C9F828106321C9F8F4
:1004B0002C10C9F834104FF40041C9F84410C9F8A1
:1004C0000000701921464FF4826204F09AFB05F592
:1004D0008265B5F5825FF4D10DF1040E0DF14C0B80
:1004E0000EF512554FF4825258464FF48258294661
:1004F00004F087FB05F53E7000244FF484710BF87F
:10050000084004F091F845F2D0512846C0F60001A9
:100510004FF43E7204F075FB0DF1080E29460EF5FE
:1005200053564FF48062304604F06BFB5846314618
:100530004FF4806204F065FB01200DF1100E0BF802
:1005400008005F20C1F20020CDF858042020C0F23E
:100550007E00A121CDF8540445F28420C0F60000AD
:10056000CDF84C44CDF850040EF5845004F05CF8FE
:1005700031200021C9F8340000204FF448724FF4B4
:10058000F073009402F0ACFC4FF6FF7118208DE878
:10059000130044F6F951C0F6000158460A220A2316
:1005A00002F044F80DF1380E4FF480500EF5095664
:1005B0000DF1040E0EF512551022C6E983442946AA
:1005C000C6E9854402F03EFED6F80C1244F24650CD
:1005D000C5F25220814205D10DF5005EBEF88E04B1
:1005E00080280AD305200DF11C0E10904FF0000B4F
:1005F0004FF0010A0EF589591CE00DF5805E12904E
:10060000D6F818124FF0000AAEF842010DF5005E60
:100610004FF0010BBEF88C040DF5805EAEF8400182
:100620000DF11C0ED6F810020EF5895949E901109A
:100630000020109044F618640026C0F6000449F823
:1006400008BCA81921462A2204F0ADF82A36B6F5CE
:10065000286FF6D10DF1040E4FF480710EF58A5417
:10066000204603F0E1FF0DF1040E04F580780EF54D
:1006700012564FF428624046314604F0C2FA4FF059
:100680007F40C9F8880B204603F017F8C00700F038
:100690004B87C8B2402880F044872A220DF5805E3F
:1006A00000FB028040F220358EF8C71C4FF0000995
:1006B000C0F2E0150DF1080E4FF48061A0F814901F
:1006C00005610EF5E65003F0AFFF0DF1380EBAF1FB
:1006D000000F0EF5095403D00120FF211290D9E13B
:1006E000BBF1000F00F020870DF1040E129944F6C3
:1006F00003620EF51250C0F60002092302F0C1FA9F
:10070000D4F80C0298B1D4E984A4002627F8586CD8
:1007100094B1A7F1580122465046022C28BF02226C
:1007200002F090FD17F8576C17F8580C05E00120FF
:10073000FF2112901090ADE1002011900DF1040EF8
:100740000EF58A5002F0B9FFC00700F09B81C8B2D5
:100750000B46402880F0E5862A22119900FB028092
:100760000DF5805E41EA06211193818290F82310F5
:10077000056101F0FE0180F823109EF8C71CFF29D7
:1007800006D00DF1040E1A460EF58A5003F00BF850
:100790000DF1380EB4F102080EF509550DF1040EF5
:1007A0004FF0000038BF8046A8F101010EF5125647
:1007B000B0EB512F40F084800DF1080E4FF4007122
:1007C0000EF5035003F030FF032C08D30DF1080E93
:1007D0000AF102000EF50351424602F033FD0DF519
:1007E000005E00254FF4D971CDF838B0AEF87C54D6
:1007F0000DF1080E0EF50B5003F016FF0DF5005E1F
:10080000119844F674648EF87E040DF5005EC0F60F
:100810000004AEF87A540DF5005E8EF87F540DF1A9
:10082000080E0EF553560DF1040E0EF5125B7019FD
:1008300021464FF4826204F0E4F905F58265B5F5CE
:10084000825FF4D1584631464FF482524FF48254BD
:1008500004F0D7F900200DF1080E0BF804000EF596
:100860005350A12103F0E0FE0DF5005E0120B246D9
:100870008EF880040DF1080E0EF50B540DF1080EE4
:100880000EF503550DF1040E0EF58A56002029468B
:100890000290204642463346CDE900BA03F030F8D4
:1008A0000DF5005E9EF880040128EFD00DF1380EA2
:1008B000DDF838B00EF509550DF1040E0EF512569F
:1008C0000DF1040E129944F60C620EF51250C0F6AA
:1008D0000002042302F0D5F9D5F80C02002800F03C
:1008E000BC85D5F81402B0F5806F814628BF4FF45F
:1008F000806940B10DF1080ED5F810020EF5E651F1
:100900004A4602F09FFC0DF11C0E00200EF58952A4
:100910000DF5005E46F26D110923C2F8980FC6F678
:100920006961C2F8950F46F62E50C7F26540C2F8CD
:100930008C1FC2F8900F61208EF8D0000DF1040ECC
:100940000EF512500DF1080E0EF50358129942469D
:1009500002F097F9D5F80C02002800F08785D5F849
:10096000140200260828C0F082850DF1380EA7F188
:1009700058010EF509500822CDF83C90D0F810022D
:1009800047E91666824602F05DFC17F8510C0DF13E
:10099000040E0E900EF5125217F8530C0D9017F826
:1009A000540C0C9017F8580C17F8525C17F8569C1A
:1009B00017F8554C129017F8570C1090002011188A
:1009C0001650063060280E71F9D10DF1080E602224
:1009D0000EF553500DF1040E0EF5125104F011F9FD
:1009E0000E980DF5405E45EA0020AEF82C05DDE9D5
:1009F0000C100DF5405E41EA0020AEF82A050DF519
:100A0000405E49EA04201099AEF828050DF5405ED5
:100A1000129840EA012000211028064628BF10261F
:100A20008EF82E6507F8941C47F8981CC8B10DF194
:100A3000080E0AF108050EF55350A7F19809841C19
:100A400028464946052202F0FDFB17F8940C0535AF
:100A5000A070013E57F8980C44F8020C04F106040B
:100A6000EED10DF1040E68220EF512500DF1080EB4
:100A700002300EF5535103F096FEDDF83C9001264E
:100A800000F0F5BC01200DF1040E1290FF21109032
:100A90000EF5125600201191311846F800900630DC
:100AA000602881F80490F7D10DF1080E60220EF550
:100AB0000B500DF1040E0EF5125104F0A2F80DF5D5
:100AC000005E4FF6FF7000244FF6FF7AAEF82C035D
:100AD0000DF5005E4FF00009AEF82A030DF5005E3B
:100AE000AEF828030DF5005E8EF82E430DF5005E7E
:100AF00000254FF4D971AEF87C520DF1080E0EF5B9
:100B0000035003F091FD0DF5005EFF264FF4D971FF
:100B10008EF880520DF5005EAEF87E620DF5005E37
:100B2000AEF87A520DF5405EAEF87C560DF1080E27
:100B30000EF5535003F078FD0DF5405E43F60008C6
:100B4000C4F20108002C8EF880560DF5405EAEF818
:100B50007E660DF5405EAEF87A5600F09E80B9F1E3
:100B6000000F00F09A80129858BB1199C8B2402823
:100B700080F0D7840DF1040E2A230EF58A5200FB73
:100B8000032090F8233143F0010380F8233110460D
:100B900002F01AFD0DF5805E9EF8C71CFF291EBFEE
:100BA0000DF1040E0EF58A5002F00EFD0DF1040E4B
:100BB00013A90EF58A500DF1100E0EF5845200F0B7
:100BC000E8FC0DF5005ECDF838B0C8461294BEF8CA
:100BD00028030DF1100E0EF5845B50450DF14C0A03
:100BE00037D00DF5405E00210E9CAEF87A160DF55B
:100BF000405E4FF47F01002CCEF87C160DF5405E70
:100C00004FF001018EF880160DF5405EAEF87806C3
:100C10000DF1140E0EF589500DF1080E0EF5535915
:100C20000DF1080E0EF5E6550DF1040E0EF58A567F
:100C300018BF041D4846294642463346CDE900AB5D
:100C4000029402F05DFE0DF5405E9EF880060128DC
:100C5000F0D00DF5805EC1469EF8C73CFF2B0AD050
:100C60000DF1040E13A90EF58A500DF1100E0EF5BC
:100C7000845201F06DF80DF1040E0EF58A5001F06A
:100C800053F90DF5005E43F600080120C4F2010897
:100C90008EF88002DDF838B0129C0DF1040E002CA5
:100CA0000EF51254CDF83C9003D1109913A8FFF71C
:100CB0006DFA0DF5005E002040F20651AEF8940981
:100CC0000DF5005E8EF8840404F10800119003F025
:100CD000ABFC0DF1140EBBF1000F0EF589500DF1B8
:100CE000080E18BF00F1040B0EF50B5006380DF17D
:100CF000040E04900EF58A5000F58F7100F2231057
:100D00000DF1380E059004F581600EF50954CDF80B
:100D100038B0129000200691CDE90A00CDE90C0010
:100D20000DF5005E35469EF8800240F00200032873
:100D300028D10DF5005E01200F9A8EF8800213A8CD
:100D40000DF1100E00900EF5845001900E980DF1EB
:100D5000080E02900EF503500DF1080E0EF5E65147
:100D60000DF1040E0EF58A5302F0CAFD0DF5005E7A
:100D70009EF88002042805D106200621109013A8B1
:100D8000FFF704FA40F2810A40F2800C40F2000EB4
:100D9000C2F2000AC2F2000CC2F2000E2E4600257A
:100DA0009AF800009CF80010884200F0418141B29E
:100DB000B1F1FF3F40F34E831EF80010013000F008
:100DC0007F008AF800009CF800000DF5005090F8B4
:100DD000840438B3012844D10DF50050264601F0B3
:100DE0007F0449B290F885240DF50050B1F1FF3F22
:100DF00090F8860400F01F0304FA03F349EA03099C
:100E00003446C6F8109264DD0DF50050B9F1000FBC
:100E100080F8845400F0AE800DF50051022081F876
:100E2000840465E011F007004FEAD10263D0022884
:100E3000B6D1042A00F0AD80022AB1D10DF50050E0
:100E40004FF000090DF50051C4F8109280F8869417
:100E500040F20120A1F884040DF50050A0F8949907
:100E6000ABE00DF5005090F88504022852D004281C
:100E70006BD10DF50050B0F89009FF2800F23A83CD
:100E8000129A11540DF500500DF50051B0F890096B
:100E90000130A1F8900980B2B0F5807F10D112988E
:100EA00002F03BF9D4F810B240F2000E40F2800C90
:100EB00040F2810AC2F2000EC2F2000CC2F2000A35
:100EC000BBF10109C4F810924E46CB467FF468AFDF
:100ED00014E307300DF500514E46CB4681F88604E9
:100EE000C0B222287FF65CAF0DF5005080F8845424
:100EF0004E46CB4654E7032A4FF0000008BF0220BD
:100F0000012A42D1D8F800000006FBD51020C8F80D
:100F1000040045E70DF50050B0F89409B0F5806F76
:100F20000AD2119A11540DF500500DF50051B0F888
:100F300094090130A1F89409BBF10109C4F8109299
:100F40004E46CB467FF42CAF40E0B6F10109C4F821
:100F500010924E46CB467FF423AF0DF500514FF073
:100F6000000900264FF0000B022881F884947FF4DA
:100F700017AF26E0042A104618BF0020022A20D00E
:100F80004FF0000900264FF0000B00283FF408AF97
:100F900069E20DF500504FF000090DF50051C4F85D
:100FA0001497A0F890990DF50050C4F8109280F8AD
:100FB000869440F20140A1F8840400264FF0000B13
:100FC000EEE60DF5005EBEF8940903E00DF5005E57
:100FD0008EF8845482B2B2F5806F00F235820DF142
:100FE000080E11990EF5E6500F9203F00AFE0DF56A
:100FF00000514FF47F0040F2000E40F2800CC1F827
:101000007C020DF50051012040F2810A4FF00009E9
:1010100081F880020020C2F2000EC2F2000CC2F27F
:10102000000AC4F8009000264FF0000B1090B6E6BE
:10103000109800067FF474AEB02001F0EFFC80B28F
:1010400063284FF000044FF0C00088BF012401F076
:10105000E5FC80B240F69C7188424FF0000038BF3A
:10106000012004EA0003012B3AD1D0201C4601F0F4
:101070004BFD05461FFA80FA902001F045FDBAF1BC
:10108000C90F01D2002513E040F63B718A4502D911
:1010900040F21F350CE0A5F1C8014FF4487289B247
:1010A000514349F67F02C0F26D42A1FB021295093D
:1010B00081B22346C92901D2002211E040F63B72D9
:1010C000914202D940F2DF120AE0C8384BF2626165
:1010D000C0F2110180B2C0EB00104001A0FB010280
:1010E0000D980DF1380E0EF50954C0B2DFE800F08E
:1010F0000A130202002B00F08C800320CDE90C5073
:101100000A9221E1002B00F0FB800120CDE90A20AA
:10111000CDE90C5018E1002B00F013810B98013041
:101120000B90C0B20328C0F06981A7F158040DF1FB
:10113000040E0EF58A510A9220460C95079602F08D
:101140005BFBA446A7F1980EBCE83D0043F60008FF
:101150007146C4F201083DC1BCE83D003DC19CE8B8
:101160007D007DC1FF21002657F818CC2A25DDF827
:1011700014A0402E3046634698BF4020664588BF85
:101180003346B34200F03C81B04200F0CA811EF801
:101190000620402A80F0C28102FB05F401361AF8CD
:1011A0000440E44314F0050FEBD10DF1040E0D964D
:1011B0000E46A7F158000EF58A516446099202F0D6
:1011C0002DFA0C9837F9581C00B2884204DAA7F1BE
:1011D000980E3146A44617E037F8542C114409B252
:1011E0008842314612DA0A98A7F1980E37F9563C30
:1011F000A44600B2984207DB37F8522C1A4412B2C8
:1012000090420998B8BF01460D9EB2E7A7F1980E2B
:10121000E0E7A7F158040DF1040E0EF58A51079688
:10122000204602F0E9FAA446A7F19801BCE87C0048
:101230007CC1BCE87C007CC19CE87D007DC157F886
:1012400018CCBCF1000F5DD0DDF814A043F6000807
:10125000079EA7F1980EFF2000210023C4F2010889
:101260002A2509900891402B00F05A811EF803208E
:10127000402A80F0538102FB05F41AF80400C106ED
:1012800021D500F0EF000DF1040E0AF80400A7F1DB
:1012900058000EF58A510B9465460D93144602F0E2
:1012A000BDF90C9837F9581C00B288420FDA214674
:1012B0000DF1040E0EF58A5002F086F90D9BA7F190
:1012C000980EAC462A2501339C4524D0CBE737F84D
:1012D000542C114409B28842E9DA0A98214637F9B8
:1012E000563C00B29842E3DB37F8522C1A4412B253
:1012F0009042DDDA06980B9A805ACDE90801D7E7CB
:10130000002020E0079E43F600080020C4F20108F8
:101310000890FF2009900DF1040E13A90EF58A50D4
:101320000DF1100E0EF5845200F033F909980DF10D
:10133000380E089D0EF50954C043000618BF002D55
:101340000ED100200B900D900DF1040E13A90EF597
:101350008A500DF1100E0EF5845200F01AF9DFE4F8
:101360000F980028EDD00DF5005E049A00209EF83D
:101370002E138142E5D00130112800F0D780931D53
:10138000D288AA421A46F4D10DF5405E4FF480305F
:10139000CEF87A060DF5405EFF20AEF87E060DF51C
:1013A000405E01208EF880060DF5405E5888AEF84C
:1013B00078060DF5405E0998C0B2CEF8C80513A8AE
:1013C0000DF1100E00900EF5845001900DF1080EF5
:1013D0000E9802900EF553500DF1080E0F9A0EF56F
:1013E000E6510DF1040E0EF58A5302F089FA0DF55F
:1013F000405E9EF880060128E1D0A2E701207DE64C
:10140000C843000619D0C8B2402880F08A806843DB
:101410000DF1040E0EF58A541AF8002042F0100265
:101420000AF80020204602F0CFF80DF1100E13A9A3
:101430000EF58452204600F0ACF80DF1380E079EF0
:101440000EF5095402207EE7114600204FF4806219
:1014500001F0B0F8802101F0B5F811990220109048
:101460000020FFF73BB9022801F087F80026002092
:10147000002108EB010248F80100063160291071D3
:10148000F7D10DF1080E60220EF503510DF1080E93
:101490000EF55355284603F0B4FB0DF5405E4FF6AC
:1014A000FF700021002EAEF82C050DF5405E129164
:1014B0004FF06802AEF82A050DF5405E4FF6FF7A50
:1014C000AEF828050DF5405E4FF000008EF82E05B1
:1014D0000DF1040E0EF512500DF1080E18BF851C0B
:1014E0000EF50B50294603F05EF901240020109000
:1014F000FFF7FCBA4FF4807101F064F80DF5005E5F
:1015000000208EF884040DF5005EBEF890090028D6
:10151000AAD0129801F001FE01F02FF8104600E069
:101520004020402101F04EF801F040F81020102139
:1015300001F048F8F0B503AF2DE9000F87B08846F9
:10154000D2F80011212920D2D9B1A7F1320A0DF128
:1015500010090AF1020614468346CD00504659464A
:10156000224601F0F7FC37F8320C38B17168306868
:10157000CDE904014846414600F0A7FD0834083D86
:10158000ECD107B0BDE8000FF0BD0020202201F033
:1015900011F8F0B503AF2DE9000FDDB01AAC8046AD
:1015A000CDE903124146204602F026F9A4460DF18A
:1015B000200EBCE87C0071467CC1BCE87C007CC18C
:1015C0009CE87D007DC108F223130021DDF8A8B05E
:1015D0002A22CDF81C808B4500F0AC80402900F019
:1015E000B5801EF80100402880F0B38050430131DF
:1015F000185C0007EFD507984FF000084FF02A0A53
:10160000CDF818B000F59074B8F1400F00F09E804E
:101610001EF80860402E80F09B8006FB0AF008F15F
:101620000102185CC04310F0090F7CD1079918A87B
:1016300005923246994601F0F1FF1AA84FF48071E5
:1016400002F0F2FF059858455FD20DF1200C0025FD
:1016500000214B4642468046E80704D03E2A73D814
:101660001CF8082019E03E2A6ED81CF808203F2AF2
:1016700068D802FB0AF004E0E8B23F2869D800FB12
:101680000AF0255CB5F1FF0018BF0120B54218BF74
:10169000FF2DF1D108B100252FE0402A52D202FBE4
:1016A0000AF0185CC00701D1012526E089465AAD31
:1016B00007999B46284601F0B1FF18A8294601F07A
:1016C0008AFC012598B10DF1200C4946B9F11F0F94
:1016D00009D81AAADDE95A0542F8310002EBC10027
:1016E0000131456001255B46DDF818B005E05B4639
:1016F0000DF1200CDDF818B0494608F101005845FD
:10170000A8D121291AD2994600E000211AA8CDE9D2
:10171000000107983346DDE9031200F0F4FC0DF1F7
:10172000200E059A4B4690465A457FF46DAF0798B8
:1017300000F0FAFB5DB0BDE8000FF0BD00202022F4
:1017400000F038FF104604E0404602E0402000E090
:101750003046402100F036FFF0B503AF2DE9000F11
:10176000ADF52B7D14469288002A70D0E288002ABD
:101770006DD001F00BFF002869D085898046002DCF
:1017800065D0B8F80E60002E61D0B4F90000B4F94D
:10179000021020EAE07021EAE17142198B19013A46
:1017A000013B01F0B2FA98F81300022800F08081A2
:1017B000012851D000284AD107A8802102F034FF27
:1017C00005FB06F0400042D040F61004D8F80410A3
:1017D0004FF00008C4F201044FF4805905910690BF
:1017E000A0EB08068025802E38BF3546059807A94E
:1017F0002A46404401F026FD022E24D34FF0000A71
:1018000007A84FF400414FF0030B30F80A002160A5
:101810000021CFF6FF710843C4F80004C4F800901B
:1018200002F000FFBBF1010BFAD10326C4F80490CB
:1018300002F0F8FE013EFBD10AF102000AF10301B9
:10184000A9428246DCD30698A8448045C8D30DF54A
:101850002B7DBDE8000FF0BDD8E901490DF11C0852
:101860008021404602F0E0FE00200590CDE92900ED
:1018700009EB0400CDE9274006FB05F00026CFF672
:10188000FF760490DDE92915A94203D2802980F072
:101890005B8211E0DDE927018142D8D90D1A802150
:1018A000802D28BF0D4641462A4601F0CBFC2798E3
:1018B00000212A952844279018F80190481C299067
:1018C0004FFA89F2B2F1FF3F74DDDDE904014FF018
:1018D000000BB0EB010A02F1010038BFDA465FFAF3
:1018E00080F949440591D345B1D0DDE92905A842E5
:1018F00004D2802880F02982014613E0DDE9271216
:1019000034468A4214D9551A8020802D28BF0546B6
:10191000084641462A4601F095FC279800212A9561
:1019200028442790481C18F80110299041EA060421
:10193000A84203D2802880F0088211E0DDE9270167
:10194000814213D90D1A8021802D28BF0D464146B2
:101950002A4601F077FC27982A95284427900020F2
:10196000411C18F800002991000200E0002040F618
:10197000100120430BF1010BC4F201014FF40042AE
:1019800003240A60C1F800044FF48050086002F09C
:1019900049FE013CFBD140F610000324C4F20100D3
:1019A0004FF48051416002F03DFE013CFBD1CB453C
:1019B00078D098E7A84203D27F2900F0C68113E0CF
:1019C000DDE9271234468A4214D9551A8020802D29
:1019D00028BF0546084641462A4601F033FC2798B1
:1019E0002A9528442790002018F8001001302990EB
:1019F00041EA0604A84203D2802880F0A68111E0C3
:101A0000DDE92701814213D90D1A8021802D28BFDD
:101A10000D4641462A4601F015FC27982A95284490
:101A200027900020411C18F800002991000200E0D6
:101A30000020DDE90412A9F17F0B00252043B1EB62
:101A4000020A594638BFAA46DA4538BF51460690C1
:101A500011440131059155453FF4F9AE40F61000AF
:101A60004FF40041C4F20100B14601606E1C0699BA
:101A70000324C0F800144FF48051016002F0D2FD3D
:101A8000013CFBD140F610000324C4F201004FF4E6
:101A90008051416002F0C6FD013CFBD15D453546F9
:101AA0004E46D8D1DDE904108842BFF4D0AEE9E655
:101AB00007A84FF40071CDE9016502F0B5FD87ADCF
:101AC0008021B8F81040284602F0AEFD002C0594A5
:101AD0003FD005984FF0000A00264FEA400B681CE3
:101AE0000490D8F800000690ABEB0A098024B9F105
:101AF000800F38BF4C46069829462246504401F0D4
:101B0000A1FBB9F1020F21D3B6F5807F3046224602
:101B100098BF4FF48070032C98BF0322023A012330
:101B2000811B03EB520307AA03EB060C02EB4606EC
:101B3000049A002900F0048132F8015C023226F890
:101B4000025B0139013BF4D187AD6646A244DA4518
:101B5000CAD328468021D8E9014502F065FD00205E
:101B600040F6100A039040F2000BCDE9A9002819B5
:101B7000C4F2010ACFF6FF7BCDE9A740DDE90110F1
:101B800048430290DDE9A904A04204D2802880F0F5
:101B9000DC8087AD13E0DDE9A70181427FF657AE17
:101BA00087AD0C1A8021802C28BF0C46294622467E
:101BB00001F048FBA798AA942044A790002015F8AC
:101BC0000080411CA9914FFA88F2B2F1FF3F55DD28
:101BD000DDE902014FF00008451A02F1010038BFAB
:101BE00045465FFA80F949440391A8453FF42FAE7A
:101BF000DDE9A901884203D2802880F0A68011E0A7
:101C0000DDE9A701814212D90C1A8021802C28BF5E
:101C10000C4687A9224601F015FBA798AA942044F8
:101C2000A7900020411CA99187A9085C00E0002032
:101C300005998842594604D207A931F8100040EAB4
:101C40000B014FF4004008F10108CAF8000003241A
:101C50004FF48050CAF80014CAF8000002F0E2FC09
:101C6000013CFBD14FF480500324CAF8040002F079
:101C7000D9FC013CFBD1C8455CD0B6E7A14202D2F9
:101C80007F2861D011E0DDE9A701814211D90C1A4A
:101C90008021802C28BF0C462946224601F0D2FA2A
:101CA000A7980021AA942044A790685C0131A991CB
:101CB00000E000200599CDF818B0884205D207A9A8
:101CC00031F8100040EA0B000690DDE90201002621
:101CD000B0EB0109A8F17F0038BFB14681450490FF
:101CE00038BF48460844013003904E453FF4AFAD3D
:101CF0004FF40040741CCAF80000D84606984FF014
:101D0000030BCAF800044FF48050CAF8000002F038
:101D100089FCBBF1010BFAD14FF480500325CAF8BE
:101D2000040002F07FFC013DFBD10498C3468642CB
:101D30002646DAD1DDE902108842BFF488AD21E7FA
:101D40004FF4807100F03EFC0846802100F03AFC20
:101D5000F0B503AF2DE9000F91B08046D8B240280E
:101D600080F0DF808A462A2100FB018090F8234121
:101D7000E10700F0D28000F580750AA8934641463D
:101D80001A46039301F04AFC95F8240007900228B4
:101D900006D1E00604D5A88B002808BFA88A00E079
:101DA000A88A2C79BDF8286002905CB1DDF82A0081
:101DB000E98ACDF83A000EA8ADF83E40ADF838609B
:101DC00000F083F995F80690B9F1000F16D0BDF830
:101DD0002C00ADF83C00BDF82A00BDF82E1009908B
:101DE000A0EB09000844E98AADF83A000EA8ADF866
:101DF0003860ADF83E9000F068F902E0BDF82A00C6
:101E00000990E9790891A9B1ADF83C100999BDF89C
:101E10002E002144ADF83A1009EB0401ADF838600A
:101E2000401A38BF0020E98AADF83E000EA800F045
:101E30004CF9089930466E79BDF82E20CDE905257C
:101E4000FEB1099B23440993ADF83A3009EB040332
:101E5000B2EB0309049338BF4FF00009BDF82C40E2
:101E60000190801B2044E98AADF838000EA8ADF837
:101E70003E90ADF83C6000F028F90198DDE90812C9
:101E80000CE009EB04030493B2EB03094FF00006E6
:101E900038BFB146099A2244BDF82C400844ADF839
:101EA00030008819ADF83690201AADF8322038BFCE
:101EB0000020ADF8340084BFDDE90410884207D962
:101EC000DDE90C01CDE90E010EA8029900F0FDF844
:101ED000069C94F8281019B10CAA5846FFF73CFC50
:101EE0000798012805D1039A0AAB5046414600F0F5
:101EF0004FF894F82150FF2D0FD008F591742A2641
:101F0000404651465A462B46FFF722FFE8B240288A
:101F100007D27043255CFF2DF2D111B0BDE8000F50
:101F2000F0BD402100F04EFBF0B503AF2DE9000BF2
:101F3000A2B00DF1440980464146484601F05CFCE0
:101F40000DF1040CB9E85E0060465EC0B9E85E00C1
:101F50005EC099E87E007EC0219A8AB108F2231300
:101F600000252A24402D0FD01CF8050040280CD253
:101F700060430135AA42195C01F0F7011954F1D10F
:101F800022B0BDE8000BF0BD4020402100F01AFB5C
:101F9000F0B503AF2DE9000F85B00646D0B240285A
:101FA00080F090800D462A2100FB015090F827B167
:101FB000BBF1000F00F0828000F58074B4F81A9035
:101FC00009EB0B00B0F5807F78D894F82510FF2935
:101FD00074D030469A4600F004FD28B930460021FE
:101FE00000F0FFFC002869D023794FF0000C227A22
:101FF000A1791A4404920A44A17A94F80580114404
:10200000BAF80620E679531A38BF63460393E37A99
:1020100003EB060E667A0EEB08033344BAF804604D
:10202000B6EB030838BFE04688BF8A4246D9BAF803
:102030000010A9445A46BAF802A00EEB0105494621
:10204000064600F0CDFA94F82620334696F80F1491
:10205000022A0AD0012A0BD1A8EB000082B200EBC1
:10206000D23000B205EB600502E008EB0502151A5C
:102070000398401A01EB410182B200EBD230049A7E
:1020800000B2524402EB600000EB910094F824107F
:10209000022908D194F82310C90604D5A18B002980
:1020A00008BFA18A00E0A18A228B02914946CDE9AE
:1020B000000218465A462B4600F0B8FA05B0BDE8B3
:1020C000000FF0BD402100F07DFAD0B502AF84B022
:1020D00044F610620C460146A7F11200C0F6000259
:1020E00000F038FF37F8120C01280AD137F80A3C03
:1020F00037F80C2C37F80E1C37F8100C009400F051
:10210000EFFE04B0D0BDF0B503AF2DE9000FADF583
:102110001F7D8246D8B2402880F02C8289462A2131
:1021200000FB01A0069090F82311C80700F012826E
:1021300018A89046029151461A46039301F06EFA90
:1021400018984FF4827107901AA8199C02F0A6FC07
:10215000210C20040594049118BF00291AD0079877
:1021600044F610621A9001205A901AA90598C0F6F8
:1021700000021B905CA800F0EDFEBDF87001012884
:1021800008D1DDF876114FF0010BDDF87201CDE9D1
:102190001A0101E04FF0000BD7E902100028CDF83A
:1021A00068B1CDF82880CDE908A900F0238101EBC2
:1021B000C0020B460B929C88002C00F01781DD8832
:1021C000002D00F013815CA84FF48071179302F08A
:1021D0002BFABBF1000F02D14FF0000BFAE0179978
:1021E0000DF168094FF0000ACDF83CB0B1F90200DA
:1021F00014902844B1F90020139200B211901019E4
:10220000002400B21290202C00F0AE819CA8D9E9E5
:102210000056CDE99C5600F0DEFEC8B314984FEA94
:1022200025480023169540454FF00100C8BF022005
:10223000C8BF012308EB1641DDF844B00FFA85FE54
:1022400035460EB2B345B8BF0346DDF84CC005EBCA
:102250000E0251460AF10100F445C8BF014615952A
:1022600015B2129AAA42B8BF0131194420291CD9CB
:10227000BAF1200F80F07A815CA9169ADDF83CB0A3
:1022800041F83A2001EBCA018246159A4A6091E072
:10229000BAF1200F80F08E805CA840F83A5000EB35
:1022A000CA000AF1010A466084E05E455946B8BF9B
:1022B00031460E919542B8BF2A460C92149A904529
:1022C0001146C8BF41461091E645C8BFF446CDF857
:1022D00034C04245AC46724615DD169DBAF1200F5A
:1022E00080F044815CA9DDF844B001EBCA0341F8F9
:1022F0003A501099A1EB080815991FFA81FA4AEA99
:102300000841596001E0169D5046DDF838E0B345BC
:10231000DDF84CA015DA202880F0298113465CAA4C
:10232000A9B202EBC00841EA0E4142F83010A6EB18
:102330000E01159A013096B21A4646EA0141C8F8D4
:102340000410DDF83CB0924517DD129B202880F088
:102350000E81A9B2109D16465CAA41EA054142F8D9
:102360003010AEEB05010D9DAE1BB6B246EA014141
:1023700002EBC0060130716000E0129B634518DA81
:10238000202880F0F4800C9D6346109E0DF5B87CEB
:102390005A1B00F1010AA9B241EA06414CF830107B
:1023A000AEEB060192B242EA01410CEBC002516071
:1023B00000E082461799013409F10809A3457FF42A
:1023C00022AFBAF1210F80F0CA80D346DDF8288011
:1023D000DDE908A91AA85CA94FEACB0202F011FCBA
:1023E000D7E902100B9A179BCDF868B108339342D6
:1023F0007FF4E1AE069ABBF1000F02F5807600F0A3
:1024000091800798DDF814C096F82410000C1791FD
:1024100040EA0C40022907D10299C90604D5B18BC4
:10242000002908BFB18A00E0B18A96F804901FFA2B
:102430008CF8079C4FF0000A139100EB0901B27968
:10244000A3B243EA01456095049D96F805E028444F
:102450001591801A96F807B05C9443EA00405E90AC
:102460000CEB04007446A0EB0E0080B240EA014081
:10247000629048EA024002EB09015F9048EA094095
:10248000B5EB01095D90149138BFD1464EEA094081
:1024900063904BEA0940CDF858B00DF5B87B1AAD02
:1024A00061900BEB0A00818829B1C18819B1F18ACA
:1024B0002A46FFF73FF80AF1080ABAF1200FF0D1D7
:1024C0001598ADF8720207981699ADF876920844FF
:1024D000ADF870026018B8EB000138BF0021DDE9EB
:1024E00008A9ADF8741240453EBF04981499814282
:1024F00004D213999CA81AAAFFF71CF896F8281082
:10250000DDF8288019B19CAA4046FFF725F91798F5
:10251000012805D1039A18AB48465146FFF738FD0C
:10252000D7E9021096F82140FF2C13D00AF59175D7
:102530002A26CDE900105046494642462346FFF779
:10254000E2FDE0B2402815D270432C5CD7E90210BE
:10255000FF2CEED10DF51F7DBDE8000FF0BD002072
:102560005146202200F026F8202000E0504620218D
:1025700000F028F8402100F025F880B56F4602F001
:102580004EF84EF60C500422CEF20000C0F2FA5281
:10259000016801F4E0611143016002F040F802F0CB
:1025A00041F8FCE780B56F46FDF79AFE80B56F46AF
:1025B00000F00CF880B56F4600F000F880B56F466B
:1025C00002F02AF880B56F46FFF7F8FF80B56F4636
:1025D000FFF7F4FF80B56F46FEE780B56F4680BD1C
:1025E000F0B503AF4DF804BDBAB1B0F80AE400236A
:1025F000B0F8086411F8015B0024B54228BFAE456D
:1026000007D3A5EB060CBCF17F0F0BD800EBCC0574
:102610002C792344013AEDD100E0002318465DF8FF
:1026200004BBF0BD60468021FFF7CCFFF0B503AFDF
:102630002DE9000FB3B0002A00F00F8189468446CF
:1026400001EB020ED7E903101C46BCF80834DCF895
:102650000024CFF6FF700392CFF6FF71DCF804245C
:102660000F90BCF80A040C9211911090CDE90AEC7D
:102670000E9319F8011B0020994224BF109A8A4238
:10268000C0F0E780C81A7F2800F2EB800CEBC00591
:10269000AE78002E00F0DB8095F80380B8F1000FD3
:1026A00000F0D58095F90500204481190AB2012A6D
:1026B000C0F2CD8095F90610BB68194401EB080300
:1026C0001BB2012BC0F2C38000B2B0F5487FBCBF83
:1026D00009B2B1F5F07F80F2BA80013A013B129560
:1026E00000F013FB12980C990088014402910399A1
:1026F0000844049008FB06F00026099007304FEAD2
:10270000D00A00200890CDF81CA00DF14C088021C3
:10271000404601F089FFAAEB060B8020BBF1800F39
:1027200028BF83460C980D9668B1B24512D0029826
:10273000CBF1000113AA304410F8013B013102F83B
:10274000013BF9D306E0049841465A46304400F074
:1027500079FD0D9E129DB245DDE90AEC06D10D9E74
:10276000DDF81CA05E445645CFD370E05846DDF836
:1027700020B040F610010022C4F2010105900BEBDD
:10278000C000CDF818900190DDF824905E46CB454E
:1027900088BFD94618F802A00BF1080B4FF00808C3
:1027A000013208924E454ED04FF40040A8F1010886
:1027B000086008F007002AFA00F0C00717D0119847
:1027C0000325C1F800044FF48050086001F02AFF8F
:1027D000013DFBD140F6100103254FF48050C4F2B7
:1027E0000101486001F01EFF013DFBD116E00F988A
:1027F0000325C1F800044FF48050086001F012FF77
:10280000013DFBD140F6100103254FF48050C4F286
:102810000101486001F006FF013DFBD1129D40F629
:1028200010010136C4F201015E45BBD1089A0DF1D9
:102830004C0805988242A7D1DDE90AECDDE905B92B
:10284000019808908BE7DDF81890DDE90AEC28790B
:102850000E9B0444F1457FF40CAF33B0BDE8000F8C
:10286000F0BD8021FFF7AEFEF0B503AF2DE9000FFC
:10287000ADF2444D15468B46069000F0B2F80028A4
:1028800040F0AA805FEA0B6000F0A6802846002195
:102890004FF0000800F097F9010400F09D800DF161
:1028A0001C091FFA80FA00264846294600223346B2
:1028B00000F0B0F90798012812D1099806280FD323
:1028C000089C0BA90622ADF83080CDF82C8020465C
:1028D00000F0B8FC9DF831105FFA8BF0814204D013
:1028E0000136B0B25045DFD376E000200DA9ADF837
:1028F000380006220D90204600F0A4FCBDF836906A
:10290000BDF834A0D14567D3A9EB0A00461CB0B28C
:10291000802861D805900FAD9DF838004FF4806194
:1029200002909DF839000190284601F07DFE0020BC
:1029300047F8210C47F8240CA01DCDE903603004B2
:102940001DD00598A7F12408049E4FF0000BC40089
:1029500030464146072200F075FC37F8240C073654
:1029600025F80B0005EB0B000BF1080B17F81E1CEC
:102970005C45817157F8221CC0F80210E8D1069915
:102980004FF48250085C032826D8069900EB80108B
:102990004FF4806201EB001401F582550FA9204627
:1029A00002F02FF9029884F80F040198059984F831
:1029B0000E040398A4F80C040020C4F80404C1EB2E
:1029C000C1012878049A0130A4F80A941144A4F8AB
:1029D00008A4C4F8001428700DF2444DBDE8000F9F
:1029E000F0BD80B56F464FF48252A0F5826310F8B7
:1029F00002C0C9B2002294450AD00132052A09D08A
:102A000003F5826093F81E388B420346F3D180BDF4
:102A1000002080BD04200421FFF7D4FDF0B503AFF2
:102A20002DE9000F81B040F6100B0421C4F2010B18
:102A30005FFA80FACBF804104FF008094FF0020853
:102A400008242646013C04F0070004252AFA00F079
:102A5000C007584608BF0430C0F80080CBF800908B
:102A600001F0E0FD013DFBD10425CBF8049001F01D
:102A7000D9FD013DFBD1022EE3D208200424CBF87E
:102A8000000001F0CFFD013CFBD108200424CBF86D
:102A9000040001F0C7FD013CFBD100244FF0080801
:102AA00000260425CBF8008001F0BCFD013DFBD1E0
:102AB0005BF8089C0425CBF8048001F0B3FD013DD0
:102AC000FBD109F00100013640EA44040C2EE8D1A4
:102AD00000264FF008080425CBF8008001F0A2FD85
:102AE000013DFBD10425CBF8048001F09BFD013DA5
:102AF000FBD10136032EEED10420CBF80000204696
:102B000001B0BDE8000FF0BDF0B503AF4DF804BD56
:102B100084B001AD00260446ADF80C60CDE9016635
:102B20002046FFF77BFFA85302360A2EF8D101207A
:102B3000002135F8102001300B4635F8136096421D
:102B400007D905EB4304013B66805E1CF5D10023E9
:102B500000E001330131052825F81320E9D1BDF843
:102B6000080004B05DF804BBF0BD43F60000C4F2F9
:102B700001000168890658BF704740F28001426831
:102B8000C2F2000191F90030B3F1FF3FD8B215DD78
:102B900040F20003C2F200031A54421C02F07F020A
:102BA0000A7040F28101C2F200010B789A4201BF23
:102BB000023000F07F0008707047704780B56F46A4
:102BC0008021FFF7FFFCF0B503AF2DE9000B88B0C3
:102BD0000C4605466846202101F026FDAEB29EB1A6
:102BE0005FFA84F9002441F21005E8462846414680
:102BF000202200F027FB9DF810002035484508BF33
:102C00000134013EF2D100E00024204608B0BDE8C6
:102C1000000BF0BDF0B503AF2DE9000F89B0804681
:102C200001A80E4620219946154601F0FDFCB4B2DC
:102C3000C4B10DF1040A5FFA85FB002641F21005CC
:102C40001FFA89F928465146202200F0FBFA9DF828
:102C50001400584503D1B0B2484505D0013620359F
:102C6000013CEFD1002006E0DDE90601C8E90101E1
:102C7000012088F80CB0C8F8000009B0BDE8000FCA
:102C8000F0BDF0B503AF2DE9000F89B001AE0C46E1
:102C90008146202130469A46009201F0C5FC1FFA79
:102CA00084F8B8F1000F1FD0002541F2100B0BEB98
:102CB00045103146202200F0C5FA01350020315C74
:102CC00019B101301028FAD10CE050450AD1009A10
:102CD00001A8514651B1013912F8013B10F8014BDE
:102CE0009C42F7D04545E2D1002008E09DF8140051
:102CF00089F80C00DDE90610C9E901100120C9F8C6
:102D0000000009B0BDE8000FF0BDF0B503AF2DE93C
:102D1000000F81B040F6100540F2000B0446C4F2EB
:102D200001054FF40040CFF6FF7B68600BF1030014
:102D3000C5F800044FF48050984691468A46032611
:102D4000286001F06FFC013EFBD14FF48050032658
:102D5000686001F067FC013EFBD14FF40040286041
:102D6000A0B240EA0B00C5F800044FF480500324E1
:102D7000286001F057FC013CFBD14FF48050032444
:102D8000686001F04FFC013CFBD14FF4004003248C
:102D900068600BF10200C5F800044FF48050286011
:102DA00001F040FC013CFBD14FF4805003246860EB
:102DB00001F038FC013CFBD14FF4004003242860B3
:102DC0001FFA8AF040EA0B00C5F800044FF4805067
:102DD000286001F027FC013CFBD14FF48050032414
:102DE000686001F01FFC013CFBD14FF4004003245C
:102DF00068600BF10700C5F800044FF480502860AC
:102E000001F010FC013CFBD14FF4805003246860BA
:102E100001F008FC013CFBD14FF400400324286082
:102E20001FFA89F040EA0B00C5F800044FF4805007
:102E3000286001F0F7FB013CFBD14FF480500324E4
:102E4000686001F0EFFB013CFBD14FF4004003242C
:102E500068600BF10600C5F800044FF4805028604C
:102E600001F0E0FB013CFBD14FF48050032468608B
:102E700001F0D8FB013CFBD14FF400400324286053
:102E80001FFA88F040EA0B00C5F800044FF48050A8
:102E9000286001F0C7FB013CFBD14FF480500324B4
:102EA000686001F0BFFB013CFBD14FF400400324FC
:102EB00068600BF10F00C5F800044FF480502860E3
:102EC00001F0B0FB013CFBD14FF48050032468605B
:102ED00001F0A8FB013CFBD101B0BDE8000FF0BD43
:102EE000F0B503AF2DE9000F81B01C460B44154629
:102EF0000244013A013BFFF708FFA8B2A1B201FB6F
:102F000000F8B8F1000F21D0D7F808A040F610045F
:102F10000026C4F20104CFF6FF7A4FF400494FF4C3
:102F2000805B0325C4F80090C4F800A4C4F800B086
:102F300001F078FB013DFBD10325C4F804B001F09A
:102F400071FB013DFBD101364645EAD101B0BDE838
:102F5000000FF0BDF0B503AF4DF804BDB2F902C0EB
:102F6000D388B1F90250CE886344B2F900402E44B0
:102F70000FFA83FEB1F9003036B27645B8BFB646D7
:102F8000928889882244194412B209B29142B8BF8A
:102F90000A466545C8BFAC46A342C8BF1C46A2420C
:102FA0004FF00001C2BF0FFA8CF30FFA8EF59D426D
:102FB0000DDDA1B2121B41EA0C41C0F80210AEEBCC
:102FC0000C0192B242EA0141C0F8061001210180D1
:102FD0005DF804BBF0BD8388024600208BB3B2F8D5
:102FE00006C0BCF1000F08BF7047F0B503AF4DF845
:102FF00004BD8C88002004B3B1F806E0BEF1000FD8
:103000001BD0B2F90050B1F90060E81803B20020FB
:10301000B34212DD33191BB29D420EDAB1F9021030
:10302000B2F9022001EB0E0003B200209A4204DA4A
:10303000624412B28A42C8BF01205DF804BBBDE8F9
:10304000F0407047F0B503AF4DF804BD4FF0000CF1
:103050006FF0060E1C46934288BF1A46A2420FD05C
:103060000D570EF1070E013405F07F06B5F1FF3F55
:1030700006FA0EF64CEA060C04DCBEF11B0FEDD985
:10308000002108E00CF00102E11A524282EA5C02DF
:10309000C0E90121012101605DF804BBF0BDF0B57C
:1030A00003AF4DF8048D84B00026CDE90266CDE96A
:1030B000006642B34FF0000EEC46002300240025CA
:1030C0009A421FD011F90380013308F07F06B8F14E
:1030D000FF3F06FA04F645EA060503DC0734232C15
:1030E000EED10FE005F001040EF1010664429342B7
:1030F00084EA55044CF82E4005D2BEF1030FB646C3
:10310000DCD300E07646EC4602469CE83A003AC240
:10311000066104B05DF8048BF0BDF0B503AF4DF867
:1031200004BDB0F80441002C5CD0D0F80061054625
:10313000300549D140F610001021C4F20100416071
:1031400043F20801C4F201010A689207FCD5062285
:103150004A600A68D207FCD04A68102202604260C6
:103160000A689207FCD520224A600A68D207FCD080
:103170004A680A689207FCD5320E4A600A68D2078C
:10318000FCD04A680A689207FCD5C6F307424A6039
:103190000A68D207FCD04A680A689207FCD5F02278
:1031A00002EA16224A600A68D207FCD04A680A6816
:1031B0009207FCD500224A600A68D207FCD0496811
:1031C0001021016000F017F8B4F5807F0DD830466B
:1031D0002946224600F0DBF80020A5F8040130194A
:1031E000C5F800015DF804BBF0BD002021464FF496
:1031F0008072FFF7DFF980B56F4640F6100043F2AA
:103200000801C4F20100C4F2010110224FF0050CC4
:103210004FF0FF0E42600B689B07FCD5C1F804C05D
:103220000B68DB07FCD04B680B689B07FCD5C1F82B
:1032300004E00B68DB07FCD04B680260DB0708BFCB
:1032400080BDE7E7002A00F0A18080B56F4640F618
:10325000100C43F2080EC4F2010C1023C4F2010E4C
:10326000CCF80430DEF800309B07FBD50323CEF802
:103270000430DEF80030DB07FBD0DEF80430DEF887
:1032800000309B07FBD5030ECEF80430DEF800308B
:10329000DB07FBD0DEF80430DEF800309B07FBD5FF
:1032A000C0F30743CEF80430DEF80030DB07FBD074
:1032B000DEF80430DEF800309B07FBD5C0F30723AF
:1032C000CEF80430DEF80030DB07FBD0DEF8043047
:1032D000DEF800309B07FBD5C0B2CEF80400DEF864
:1032E0000000C007FBD01F2ADEF8040037D9DEF843
:1032F00000000023C00718BFDEF804000020C4F25D
:103300000200C36103634FF47F6343600EF1040363
:10331000436281624FF402510262C16145F6C80105
:10332000C0F600018363C16342F21001426301638E
:1033300003214EF8041CC16941F00101C161016B18
:1033400041F00101016301688906FCD50021C161DA
:1033500001634EF8041C4FF47F61416011E088184E
:10336000FF22DEF800309B07FBD5CEF80420DEF804
:103370000030DB07FBD0DEF8043001F8013B81426E
:10338000EFD11020CCF80000BDE880407047002A43
:1033900071D0F0B503AF2DE9000F81B040F61008F1
:1033A00043F2080614460546C4F20108C4F20106B9
:1033B0004FF010094FF0020BC8F8049030688007F6
:1033C000FCD5062070603068C007FCD07068C8F873
:1033D0000090C8F8049030688007FCD5C6F804B0A7
:1033E0003068C007FCD0706830688007FCD5280EB4
:1033F00070603068C007FCD0706830688007FCD50A
:10340000C5F3074070603068C007FCD07068306852
:103410008007FCD5C5F3072070603068C007FCD07A
:10342000706830688007FCD5E8B270603268D207F7
:10343000FCD0C0F580707268844238BF204601EB32
:10344000000A0A7833689B07FCD572603268D2079D
:10345000FCD0013172685145F3D1C8F800900544A1
:10346000241AFFF7C8FE5146002CA5D101B0BDE8D3
:10347000000FBDE8F0407047F0B503AF2DE9000F35
:1034800089B00090080633D0009816468B4600F0AD
:103490007DF868BB30460121FFF795FB010427D07A
:1034A0000DF104091FFA80F8002448463146012234
:1034B0002346FFF7AFFB0198012815D1DDF80CA0DA
:1034C000BAF1090F10D3029D002007F8290CA7F1CB
:1034D000290105F108000122FFF7B4FE17F8291CA5
:1034E0005FFA8BF0814207D00134A0B24045DCD3B3
:1034F00009B0BDE8000FF0BD002006A98DF820003E
:103500000922CDE906002846FFF79CFEBDF81810F9
:1035100044F249608142EBD19DF81E0000F00300A7
:1035200002280AD19DF81F2005F10903002A08BFCF
:103530004FF4807203EB420103E005F10901002220
:103540000023009E96F8A060072ED1D8009C06EBC1
:1035500086069DF82080BDF81CC044F8263004EB98
:103560008603D87405EB0A00401ABDF81AE083F808
:103570001280C3E9011094F8A0001A820130A3F868
:103580000EC0A3F80CE084F8A000B1E780B56F4648
:1035900000F1120C90F8A0005FFA81FE002398421F
:1035A0000CD00133092B0BD00CF114029CF8001045
:1035B00094467145F3D1A2F1260080BD002080BD64
:1035C00008200821FEF7FEFFF0B503AF4DF8048D8B
:1035D0000446C8B240281ED24FF02A0800FB08401B
:1035E00090F8215190F82311FF2D41F0080180F847
:1035F00023110DD004F5917620462946FFF7E4FF0C
:10360000E8B23F2807D800FB08F0355CFF2DF3D166
:103610005DF8048BF0BD4021FEF7D4FFF0B503AF99
:103620002DE9000F81B05FFA82FEBEF13F0F42D854
:1036300001F5807A4FF02A080EFB08AC01F590796D
:103640000EFB08FE9CF80330BCF80C401AF80E5034
:1036500004EB030BBCF80E4019F80E102C44FF29A4
:103660001BD03F2923D801FB08A601FB08F1F589EF
:10367000327A25441AF8014096F803E0F37925449C
:10368000347919F801102C441444B2895A44724414
:103690001A44F37A02EB030BE1E7DCF810104480E4
:1036A000A0F800B0416001B0BDE8000FF0BD0846D1
:1036B0004021FEF787FF7046FAE7F0B503AF4DF8FB
:1036C00004BD90F8824B3F2C1ED805462A2004FBEF
:1036D0000056182106F5807000F0FDFF00204FF421
:1036E0007F4186F82801C6F81C014FF6FF70C6F826
:1036F000180195F8820BC6F824116FF07C41013057
:10370000C6F8201185F8820B0020402C38BF01201C
:1037100021465DF804BBF0BDF0B503AF2DE9000B09
:10372000FF2B35D8CDB23F2D39D8064600F580782D
:103730002A201C4605FB008090F8271069B18C42B6
:103740000BD8408B2118B1F5807F24D83044114626
:10375000224601F028F82A2016E0B6F8809B04EBF8
:103760000900B0F5807F13D806EB09001146224608
:1037700001F019F82A2005FB0081A1F81A90B6F88B
:10378000801B2144A6F8801B6843404480F82740F2
:10379000BDE8000BF0BD4FF48072FEF70BFF28462A
:1037A0004021FEF70FFF80B56F460346D0B23F2899
:1037B0009FBF03F580734FF02A0C00FB0C3080F89C
:1037C00020109CBFC8B2402802D34021FEF7FAFE69
:1037D00000FB0C3191F82100FF2804BF81F8212063
:1037E00080BD3F28F1D800FB0C3191F82200FF2862
:1037F000F7D181F8222080BDF0B503AF2DE9000F8D
:10380000B3B0064603A80C464021FF2201F09DF903
:1038100094F8835BFF2D60D00DF14C0A3F210AF133
:103820000100FF22009601F03AFA23AE04F59179E7
:10383000A6F10108012100224FF02A0B04F2211009
:103840008DF84C5001904C1E412957D21AF8045063
:10385000402A02D203A88554013202923046402108
:10386000FF2201F072F9402D46D205FB0BF00199C1
:10387000085CFF2801D121461AE00022402A37D0F7
:103880004028B05435D200FB0BF0013219F800008B
:10389000FF28F3D12146501E3F2906D8412A28D2BD
:1038A00018F802200AF80120013102460028F2D15E
:1038B000029A0029C7D10DF10C0EDDF800C0904628
:1038C000BEE86E0060466EC0BEE86E006EC09EE848
:1038D0007E007EC0CCF8408006E030464021FF22CA
:1038E00001F033F90020306433B0BDE8000FF0BDC3
:1038F00040204021FEF766FE2846FAE72046F8E71A
:10390000F0B503AF2DE9000F87B0B0F8B0B1944621
:1039100001938646934588BFDC46D7F810800BF1AB
:103920000105D7E9029A00246FF00606DC4525D090
:1039300011F90B30073603F07F00B3F1FF3F00FAB7
:1039400006F044EA00040BF101000ADC013583466D
:103950001B2EEBD912E08EF8B80107B0BDE8000FBE
:10396000F0BD04F00706AEF8B001052E06D84FEA08
:10397000D40CDFE806F00546260303600420EAE7DE
:10398000CDF800E01FFA85FE724588BF964685B2E5
:1039900000226FF00604AE450ED04B57073403F0FB
:1039A0007F06B3F1FF3F06FA04F642EA060200F38F
:1039B000838001351B2CEED90099042081F8B801D1
:1039C000CBE7F0461FFA85FE85B24FF0000A6FF094
:1039D0000606724588BF9646AE450ED04B57073651
:1039E00003F07F04B3F1FF3F04FA06F44AEA040A45
:1039F00000F3538001351B2EEED9042088F8B8015E
:103A0000ABE786B2B31C9342B8D88C5B02305FFA46
:103A10008CF10A29AEF8B00100F37980092900F091
:103A2000D2800A29AAD17046754600F0C6FD00284A
:103A30007FF493AFD1E05FFA8CF028289ED8DFE8BE
:103A400010F02A002900B502290029004B020903C1
:103A50001A035C02290029002900290029002900F5
:103A6000BD02CA023F032E030A0270022902B901F5
:103A7000DC02ED0267035103A30137022900820330
:103A8000B7011F02F7012900290029002900870238
:103A9000CA01960372E702205DE7A5EB0B03184409
:103AA000A8F8B001434680B20AEB0005954244D91C
:103AB000042083F8B80150E7A5EB0B01009D0844F2
:103AC000A5F8B00102F00100404280EA52045FFA1A
:103AD0008CF0411E0D2900F28380DFE811F00E000A
:103AE0005A05F0003B015A055A055A055A055A0570
:103AF0005A055A05ED00FF00460195F8B40110285B
:103B000080F0478505EB8000C0F8004114E30B29E5
:103B10005CD01D297FF432AF9EF8B5110829BFF49F
:103B20002DAF0EEB4101A1F8A0019EF8B501AEF852
:103B3000B04101308EF8B5010FE78542C0F02E8507
:103B400001EB00095FFA8CF023287EDC0D2800F0E1
:103B50003383232840F00884BAF1060FC0F00484B0
:103B600093F8B461B9F804A0C6F110005045C0F054
:103B7000FB830021D9F80000CDE904115446CDE9BA
:103B8000021102A9BAF1100F28BF10242246FFF734
:103B900059FBBAF1000F00F0258308F5807002A9E7
:103BA0000422F3B2102B08D20E7840F8236098F864
:103BB000B4315E1C88F8B46101E088F8B8210131A5
:103BC000013CEED10EE3AEF8B041C6E67046754654
:103BD00000F0F3FC00283FF4C0AEA5F8B041BCE60D
:103BE000222800F00F83252840F0D38495F8B711E0
:103BF000072900F2CE84B5F8B201A2B21318402B07
:103C000000F2C78405EB8103A3F880012004A3F828
:103C100082410CD000230026B5F8B2013044402880
:103C200080F0C884013645F82030B242F4D1B5F8AE
:103C3000B20195F8B7212044A5F8B201013295F8F8
:103C4000B40185F8B72100F09DBC242800F0CC8297
:103C5000252840F0898393F8B701072800F2848370
:103C6000B3F8B2214FF0000BBAF1000F00F0598306
:103C70004020C2F140040026904238BF5C460092CA
:103C800003EB8200019002A8494652463346FFF7F3
:103C9000D9F90298002800F0428343465C4500F0C1
:103CA0006383019ADDE903010E44564542F82B0077
:103CB0000BF1010BE7D333E385F8B6414DE6102C49
:103CC0003CBF95F8B401102880F0638405EB8401B3
:103CD00005EB8000D1F8401100F058BC284600F0F8
:103CE0006CFC014695F8B601FF283FF436AE40283B
:103CF00080F06084E2B2013A1F2A3FF62EAE2A23FA
:103D0000019E00FB036000F58070DFE812F02100E7
:103D1000C303E803B203B703F103A703AF03E2034E
:103D20002000200020002000D8030E0498039503F3
:103D30001804E503EB03110409047303A0031B0437
:103D400078039B038003CF037B032504220404E64E
:103D5000818102E6102C80F01C84284605EB840447
:103D600000F02BFCC4F84001F7E595F8B601FF28F8
:103D700040F06B8295F8B401102880F00A8405EBBE
:103D80008000002100F002BC7046754600F015FC72
:103D90000446284600F011FC95F8B411102980F073
:103DA000F8830022A04205EB8101A8BF0122ACE10B
:103DB0000320D0E57046754600F0FFFB0446284618
:103DC00000F0FBFB95F8B411102980F0E28305EBBD
:103DD00081012040AEE17046764600F0EEFB0446DD
:103DE000304600F0EAFB0546304600F0E6FB0028CE
:103DF00000F1268296F8B711C2B2914240F22082B9
:103E0000072800F2CE83002D00F11A8206EB800015
:103E1000AAB2B0F88211914240F2128200F5C0704D
:103E2000008828443F2800F2C58346F8204094E5E6
:103E300001987446FFF741FCC00700F03A8294F8FD
:103E4000B4012246102880F0008102EB8000C9B244
:103E5000C0F80011F2E07046754600F0AEFB044673
:103E600028462E4600F0A9FB002C00F0D981611CE9
:103E700008BFB0F1004F00F0978390FBF4F0D0E161
:103E800001984946524607B0BDE8000FBDE8F04032
:103E9000FDF77FBB7046744600F08FFB94F8B411B9
:103EA0002246102980F0D18002EB81014042C3E01C
:103EB0007046754600F081FB0446284600F07DFB05
:103EC00095F8B411102980F064830022A04205EB1C
:103ED0008101C8BF012218E17046754600F06DFBF4
:103EE0000446284600F069FB95F8B411102980F0CB
:103EF000508305EB810120441CE17046754600F0BB
:103F00005CFB0446284600F058FB95F8B4111029D4
:103F100080F03F8305EB81010022A042B8BF01225F
:103F2000F3E07046754600F048FB044628462E46EE
:103F300000F043FB002C00F07381611C08BFB0F15E
:103F4000004F00F0318390FBF4F101FB140068E1B5
:103F50007046754600F031FB0446284600F02DFB04
:103F6000002800F1168395F8B711C2B2914240F2D1
:103F70001083072800F21583002C00F10A8305EB5B
:103F80008000A2B2B0F88211914240F2028300F5A3
:103F9000C070008820443F2800F20C8395F8B411CB
:103FA000102980F0F68255F82000C1E0704607B075
:103FB000BDE8000FBDE8F04000F0FFBA9EF8B61172
:103FC000FF293FF4CAAC019807B0BDE8000FBDE877
:103FD000F040FFF7F9BA9EF8B411002900F06E81A5
:103FE000481E1129C0B280F0E18210293FF4C6AC0E
:103FF0000EEB8000D0F8000161E17046754600F0DC
:10400000DCFA0446284600F0D8FA95F8B4111029D5
:1040100080F0BF8205EB810120438BE0704674463F
:1040200000F0CBFA94F8B411224610290DD2B0FA60
:1040300080F002EB81014009C1F8000192F8B4015F
:10404000013082F8B401FFF788BC042082F8B8017F
:10405000FFF783BC7046754600F0AFFA0446284669
:1040600000F0ABFA95F8B411102980F0928205EBBC
:104070008101001B5EE07046754600F09EFA044622
:10408000284600F09AFA95F8B411102980F0818240
:10409000001B05EB8101B0FA80F040094AE0704650
:1040A000754600F08AFA0446284600F086FA95F82C
:1040B000B411102980F06D8205EB8101604339E075
:1040C0009EF8B421012A7FF659AC511E023A0EF532
:1040D0008070C9B2D2B207B0BDE8000FBDE8F040B1
:1040E00000F084BA7046754600F067FA0446284628
:1040F00000F063FA95F8B411102980F04A8200228A
:10410000A04205EB8101D8BF0122C1F8002113E0D4
:104110007046754600F051FA0446284600F04DFA04
:1041200095F8B411102980F03482001B18BF0120CB
:1041300005EB8101C1F8000195F8B401013085F863
:10414000B401FFF70ABC9EF8B51100293FF416AC84
:10415000481E8EF8B5010829C0B200F222820EEB8B
:104160004000B0F8A001AEF8B001FFF7F6BB704612
:10417000744600F022FA234600283FF599AC93F8E4
:10418000B711C2B291427FF693AC072800F20982C0
:1041900093F8B4111029BFF48BAC03EB800003EB50
:1041A0008101B0F88201C1F8000193F8B401013037
:1041B00083F8B401FFF7D1BBBAF1000F00F0D4804F
:1041C00093F8B6411E46FF2C00F0D28019F8016B1F
:1041D000AAF10103452E40F07D80019821464A4610
:1041E000FFF79AFA4646C3E0BAF1040FC0F0BC806C
:1041F000BAF104021E461EBF59F8040B4946FFF7E8
:10420000C6F8B5E095F8B621FF2A3FF4A6AB0198B1
:10421000214607B0BDE8000FBDE8F040FFF7C3BA84
:10422000002096F8B41110290AD206EB8101C1F8DA
:10423000000196F8B401013086F8B401FFF78DBB98
:10424000042086F8B801FFF788BB402880F0B281CF
:10425000E1B24A1E00211F2A00F292812A23019E08
:1042600000FB036000F58070DFE812F020002D01F4
:1042700051011E012401550117011C014D018A0144
:104280008A018A018A013F016501F400EF006F0194
:104290004F01530167015D01C70006017101CF00A5
:1042A000F600E3003001E10088018601B0F90C104E
:1042B00066E1042084F8B801FFF74FBB00200EEB45
:1042C0008101C1F800019EF8B40101308EF8B401FB
:1042D000FFF743BB02A849461A46FEF7E0FE402C12
:1042E00080F06781A6F140004646042840D82A2283
:1042F000019E04FB02620699DDE902CEDDE9043984
:1043000002F58074DFE800F0036E4A5C3800012992
:10431000464684BFA4F80EE0A4F80CC028E043464B
:10432000009A93F8B701082880F03B8103EB8001E5
:10433000A1F882B1A1F880210BEB0201A3F8B21120
:1043400093F8B711013183F8B71193F8B41110291C
:104350000AD203EB81011E46C1F8000193F8B401B3
:10436000013083F8B40103E004201E4683F8B8014D
:10437000A6F8B051FFF7F1BA46460329F8D94FF431
:104380007F004FEA0E2100EA034089B240EA09604B
:1043900008445FFA8CF10844A060E9E74646032927
:1043A000E6D94FF47F004FEA0E2100EA034089B2BC
:1043B00040EA096008445FFA8CF108442060D7E7BE
:1043C00046460329D4D94FF47F004FEA0E2100EA74
:1043D000034089B240EA096008445FFA8CF108445E
:1043E0006060C5E70129464684BFA4F812E0A4F83E
:1043F00010C0BDE7C171FFF7B0BAC179C0E08172EA
:10440000FFF7ABBA8183FFF7A8BA817AB8E0B8F1B9
:10441000000F80F825103FF4A0AAB8F80A204846FB
:1044200007B0BDE8000FBDE8F040FEF71DBA818B74
:10443000A6E090F82510A3E04170FFF78EBA017056
:10444000FFF78BBAC172FFF788BA417898E0017222
:10445000FFF783BA017893E0C17A91E090F82320C6
:10446000002902F0FB0218BF043248E08182FFF706
:1044700074BA4182FFF771BA017A81E0002918BF4E
:10448000012190F8232002F0FE02114480F823104D
:10449000FFF763BAC181FFF760BA90F82300C0F359
:1044A00080016DE0818A6BE0418A69E080F8261026
:1044B000FFF753BA90F8230000F0010160E080F8A4
:1044C0002410FFF74ABAB0F90E1059E090F8261000
:1044D00056E0C182FFF741BAC170FFF73EBA0182D0
:1044E000FFF73BBA0171FFF738BA90F8241047E0A4
:1044F00090F82320002902F0FD0218BF023280F854
:104500002320FFF72ABAC18A3AE0C17838E0018A4D
:1045100036E0017934E090F82300C0F340012FE049
:104520008171FFF71ABA81792AE00183FFF715BA82
:104530004171FFF712BA018B22E0417920E08170CE
:10454000FFF70BBA4172FFF708BA817818E0417A99
:1045500016E0C183FFF701BAB8F1000F80F8281008
:104560003FF4FBA9B8F80A20504607B0BDE8000F99
:10457000BDE8F040FEF780BFC18B01E090F8281045
:1045800095F8B401102804D205EB8000C0F80011A2
:10459000D2E5042085F8B801FFF7DFB92946FEF718
:1045A00009F80821FEF70EF8FEF710F81021FEF7C3
:1045B00009F820464021FEF705F890F8B42182B1B1
:1045C000511E80F8B411112AC9B23EBF00EB810020
:1045D000D0F80001704780B56F4608461021FDF7FE
:1045E000F1FF042180F8B8110020704780B56F46B4
:1045F0000F290FD8102A3FBF50F821C050F82230A1
:1046000040F8213040F822C038BF80BD104610214C
:10461000FDF7D8FF0846FAE780B56F46FEE7BFF31F
:104620004F8F704700BF704780B56F46042905D390
:104630000B1FDA4312F00C0F02D11AE0024624E0FD
:104640004FF0000C024642F804CB13F00C0F08D0D8
:1046500003F00C02C0F804C0042A05D10839083060
:1046600006E01946104604E000220C3982600C3046
:1046700002460C2B09D3002302461039C2E900334D
:10468000C2E9023310320329F7D85018824221D2EE
:10469000A1F1010C11F003030CD04FF0000E1146F4
:1046A00001F801EB012B0AD0022B82F801E003D1C3
:1046B000911C04E0114602E000219170D11CBCF174
:1046C000030F38BF80BD0439002241F8042F0B1DB1
:1046D0008342FAD180BDB0B502AF10293FD3424228
:1046E00002F003054219904220D2A5F1010C8DB1D0
:1046F000002386460EF8013B012D07D04370022DA2
:104700001ABF837000F1030E00F1020EBCF1030F1B
:1047100004D20BE08646BCF1030F07D3AEF10400D0
:10472000002340F8043F041D9442FAD1491B21F0B4
:1047300003001044824210D2002342F8043B82421C
:104740000BD242F8043B82423CBF42F8043B824217
:1047500003D242F8043B8242EFD301F00301421836
:1047600090421FD24B1E11F003040CD04FF0000CEE
:10477000014601F801CB012C0AD0022C80F801C0BF
:1047800003D1811C04E0014602E000218170C11CBC
:10479000032B38BFB0BD081F002140F8041F031DC4
:1047A0009342FAD1B0BD80B56F46BDE8804000F0BD
:1047B00000B8F0B503AF2DE9000F8BB0102A1ED35F
:1047C000434203F0030800EB0803984233D2A8F1F8
:1047D000010C06460C46B8F1000F1AD00C460646EE
:1047E00014F801EBB8F1010F06F801EB11D04E7887
:1047F000B8F1020F467008D18C1C861C09E0844673
:104800000CEB02039C4540D36CE08E78CC1C867088
:10481000C61CBCF1030F0ED3043C043E14F8045F25
:1048200006F8045F65787570A578B570E578F57061
:10483000351D9D42F2D1A2EB080E01EB08042EF0CB
:10484000030214F0030603EB020C59D1634515D2A1
:1048500021460D6843F8045B63450FD24D6843F869
:10486000045B63453EBF8D6843F8045B634505D236
:10487000CD68103143F8045B6345EAD3A1180EF00C
:1048800003020CEB02039C452CD2A2F1010E12F0A4
:10489000030413D00A46654612F8016B012C05F893
:1048A000016B0DD04A78022C8CF801201ED18A1C95
:1048B0000CF10205BEF1030F05D213E065460A466E
:1048C000BEF1030F0ED3111F2A1F11F8046F02F857
:1048D000046F4E7856708E789670CE78D670161D0E
:1048E0009E42F2D10BB0BDE8000FF0BD8A780CF10A
:1048F00003058CF80220CA1CBEF1030FE3D2F1E7D6
:104900004FF0000AC6F1040B0AADCDF828A005EB64
:1049100006095FEACB751EBF257889F800504FF075
:10492000010AA51B0795F50005955FEA8B7544BF45
:1049300034F80A5029F80A501D1DDDF828A06545F5
:10494000059DC5F1000B78D27342D14619440BF096
:104950001803CDF800B082468B4607930BEB080393
:10496000069329FA05F9CDF80CB05968079BCDF8E4
:1049700008A001FA03F343EA09030AEB0809CB464E
:104980004BF8083BE34544D221FA05F30493069B18
:10499000DDF810A09968079B01FA03F343EA0A03C4
:1049A000C9F8043009F10C03634538D2E940079D8A
:1049B00004910699DDF810A0C968019101FA05F586
:1049C00009F1100145EA0A056145CBF800502FD2E4
:1049D0000599019DDDF808A0DDF80CB025FA01F17C
:1049E000069D0AF1100A0BF1100BD5F81090079DE7
:1049F00009FA05F52943059D19600AEB0803191DFD
:104A00006145ABD30BEB08010791DDF800B0CA4656
:104A100013E0069B0433079309F1040304E0069BAB
:104A20000833079309F10803DDF800B08A4604E073
:104A3000DDE900BA06990C3107910021012E8DF8AD
:104A4000241007F8261C05D10DF124094FF00008A9
:104A5000002609E0079DA7F12609022629796D792C
:104A60008DF824104FEA0528E50701D1002609E05A
:104A700007990431895D89F8001017F8261C0E0487
:104A80009DF8241046EA0806059D31430BF01806F0
:104A9000B1402AFA05F529431960EFE680B56F4663
:104AA000042905D30B1FDA4312F00C0F02D11AE0D0
:104AB000024624E04FF0000C024642F804CB13F00B
:104AC0000C0F08D003F00C02C0F804C0042A05D172
:104AD0000839083006E01946104604E000220C3977
:104AE00082600C3002460C2B09D300230246103999
:104AF000C2E90033C2E9023310320329F7D8501853
:104B0000824221D2A1F1010C11F003030CD04FF02D
:104B1000000E114601F801EB012B0AD0022B82F89E
:104B200001E003D1911C04E0114602E000219170E4
:104B3000D11CBCF1030F38BF80BD0439002241F8FD
:104B4000042F0B1D8342FAD180BD80B56F46042926
:104B50000DD35FFA82FC4FF001330CFB03FCA1F193
:104B6000040E6FEA0E0313F00C0F02D118E0034697
:104B700022E003461EF00C0F43F804CB08D00EF0E1
:104B80000C03C0F804C0042B05D10839083006E036
:104B90007146184604E0C0F808C00C390C300346D2
:104BA000BEF10C0F08D303461039C3E900CCC3E9AA
:104BB00002CC10330329F7D85818834220D2A1F130
:104BC000010C11F0030E0DD01946BEF1010F01F8D2
:104BD000012B08D05A70BEF1020F1ABF9A70D91C6F
:104BE000991C00E01946BCF1030F38BF80BD0439A1
:104BF00001F8042F0B1D8342CA708A704A70F7D1E6
:104C000080BD042A09D3D0B502AFA2F1040E6FEA29
:104C10000E0313F00C0F06D123E00B4684466046CA
:104C20001946FFF7C6BD0B46844653F8044B1EF0E9
:104C30000C0F4CF8044B09D04B6843600EF00C038A
:104C4000042B07D1083A0831083008E07246604664
:104C5000194606E08B680C3A83600C310C308446B0
:104C60000B46BEF10C0F14D384460B461868103A5D
:104C7000CCF80000032A5868CCF804009868CCF8F7
:104C80000800D86803F11003CCF80C000CF1100CEC
:104C9000ECD8BDE8D04060461946FFF78ABDD0B5D4
:104CA00002AF102946D3434203F0030C00EB0C0380
:104CB000984222D2ACF1010EBCF1000F10D0044694
:104CC000BCF1010F04F8012B06D04270BCF1020FB9
:104CD0001ABF8270C41C841CBEF1030F04D20CE006
:104CE0000446BEF1030F08D3201F00F8042F041D53
:104CF0009C42C27082704270F7D1A1EB0C0C2CF078
:104D000003001844834213D2D1B24FF001346143FF
:104D100043F8041B83420BD243F8041B83423CBF7D
:104D200043F8041B834203D243F8041B8342EFD3AE
:104D30000CF00301431898421ED2A1F1010C11F0AE
:104D400003040BD00146012C01F8012B07D042705F
:104D5000022C1ABF8270C11C811C00E00146BCF10C
:104D6000030F38BFD0BD081F00F8042F011D994262
:104D7000C27082704270F7D1D0BD80B56F46FEE739
:104D80004552524F52706167655F6D61696E206E6A
:104D90006F7420666F756E646D61696E2070726FDE
:104DA0006772616D206E6F7420666F756E64696DD9
:104DB000616765206E6F7420666F756E64666F6ED6
:104DC00074206E6F7420666F756E646E6F206669F6
:104DD0006C652073797374656D20696E20666C61F3
:104DE000736870726F6772616D2065786563757442
:104DF000696F6E206572726F726665727269746532
:104E00002D7569706167655F6D61696E6D61696E51
:104E1000000000002003E00100000000000000008E
:104E20000000000000000000000000000000000082
:104E3000FFFF000000000000FFFFFF0300FF000075
:104E40000000000013000000160000000F0000002A
:104E50000E0000001700000017000000854D00083C
:104E6000984D0008AE4D0008BD4D0008CB4D000820
:104E7000E24D0008000000000000000000000000FB
:104E80000000000000000000000000000000000022
:104E90000000000000000000000000000000000012
:104EA0000000000000000000000000000000000002
:104EB00000000000000000000000000000000000F2
:105280000000FF00AAA80CED2492482448912FE4C6
:10529000897F28512240083E6240300E0181C3BE02
:1052A00008087112238023B80E2244703881020648
:1052B0001A6546C8ECE9245AAAA940A9555A801093
:1052C000224BE3051100102047F10204006B48FF58
:1052D00000F0020810608104082041020800388AAA
:1052E0000C183060C18288E02728421084213E38A3
:1052F0008A08102082086103F87C0602021C06015D
:105300000101423C18A2928A28BF0821C07C810377
:10531000E44040810388E01E41040B98B0C1C2887C
:10532000E0FE040820408204082040388A0C14471C
:105330001141838CE0388A1C1868CE810413C0F0B8
:105340000F6C00D2D2000304186060180403FF80C1
:10535000001FF040180300602060C0803D840830CA
:10536000C2000000303C46828EB2A2A29F808040E4
:105370003C3C014028090110420FC104409E3CFE04
:1053800021904867E209028141FF803EB0F0300879
:1053900004020080608F80FE219068140A05028359
:1053A000437F00FF20900887C221008140FFC0FF9B
:1053B000A0500887C22100804078001E986C0A0027
:1053C0008020F80B026087C0E3A0904827F2090410
:1053D000824171C0F90842108427C01F02020202F4
:1053E000028282C678E3A1110905832108844170F5
:1053F000C0E04040404040414141FFE0EC194528B9
:10540000A4A494911202405C1CC3B0944A24924913
:10541000148A4370801E319050180C060282630F6C
:1054200000FE434141427C404040F01C3190501806
:105430000C060282631F04079230FE219048242349
:10544000E110844170C03ACD0A030180C1C778FFE2
:10545000C462210080402010081F00E3A09048246F
:1054600012090482220E00F1E81082104210220478
:1054700080500C0080F1E809112544A8550CA18C3E
:10548000318430E3A088828080C090444171C0E3C1
:10549000A088828140402010081F00FD0A2081045E
:1054A000102183FCEAAAAAC0808103020404080830
:1054B00010102020D55555C01051222820FFE0881B
:1054C000807E008047EC140A0CFBC020100BC61233
:1054D00005028140B0B7803A8E0C0810109E030080
:1054E0008047A4340A050281218F603C4381FF80FC
:1054F00080613E3D043E410410410F803DA1A0501B
:105500002814090C7A01018780C020100BC63209CB
:1055100004824120B8E01001C08102040811FC108F
:105520003E10842108423F00C040404F445870481C
:105530004442C7702040810204081023F8B7646217
:1055400031188C4623915E31904824120905C73EDC
:1055500031A030180C058C7CDE309028140A0584AC
:10556000BC402038003DA1A0502814090C7A01004D
:1055700080E0CEA1820408107C3A8D0B80F070DEB2
:105580004040FC4040404040413EC34141414141D8
:10559000433DE3A090844220A05010E3C0924B25ED
:1055A00092A99844E331050101411105C7E3A09098
:1055B000844240A0601010083E00FD0820820810C0
:1055C000BF2924A24926FFF889248A492C61243066
:1055D000000000000B0001000000020B0B04F600AD
:1055E000030006050B02F6000700070C0B02F6008D
:1055F0001200080C0B01F6001E00070B0B02F60050
:105600002800070A0B02F700310003050B04F6001F
:105610003300020D0B05F6003700020D0B04F600F7
:105620003B0007070B02F600420007070B02F800D9
:10563000490003050B02FF004B0009010B01FB00B1
:105640004D0002020B04FF004E00070D0B02F50097
:105650005A00070B0B02F6006400050B0B03F60063
:105660006B00070B0B02F6007500080B0B01F60030
:105670008000060B0B03F6008900070B0B02F600F7
:105680009300070B0B02F6009D00070B0B02F600C0
:10569000A700070B0B02F600B100070B0B02F60088
:1056A000BB0002080B04F900BD00030B0B03F9005B
:1056B000C20008080B01F800CA0009040B01FA0037
:1056C000CF0009080B01F800D800070A0B02F70009
:1056D000E100080C0B02F600ED000B0A0B00F700CE
:1056E000FB00090A0B01F7000701090A0B01F7008B
:1056F0001301090A0B01F7001F01090A0B01F7004A
:105700002B01090A0B01F70037010A0A0B01F70008
:105710004401090A0B01F7005001050A0B03F700C9
:105720005701080A0B02F7006101090A0B01F70093
:105730006D01080A0B02F70077010B0A0B00F70056
:105740008501090A0B01F7009101090A0B01F70015
:105750009D01080A0B01F700A701090D0B01F700D5
:10576000B601090A0B01F700C201070A0B02F70094
:10577000CB01090A0B01F700D701090A0B01F70059
:10578000E3010B0A0B00F700F1010B0A0B00F70015
:10579000FF01090A0B01F7000B02090A0B01F700D0
:1057A0001702070A0B02F7002002020D0B05F60094
:1057B0002402070D0B02F5003002020D0B04F60067
:1057C000340207050B02F60039020B010B00020040
:1057D0003B0203030B03F5003D0209080B01F9002E
:1057E0004602090B0B01F600530207080B02F900F1
:1057F0005A02090B0B01F600670208080B01F900B9
:105800006F02060B0B03F6007802090B0B01F9007F
:105810008502090B0B01F6009202070A0B02F70042
:105820009B02050D0B03F700A402080B0B02F60008
:10583000AF02070B0B02F600B90209080B01F900D1
:10584000C20209080B01F900CB0209080B01F9009B
:10585000D402090B0B01F900E102090B0B01F9005D
:10586000EE0207080B03F900F50207080B02F90026
:10587000FC02080A0B02F700060308080B01F900F6
:105880000E0309080B01F900170309080B01F900C1
:10589000200309080B01F9002903090B0B01F9008A
:1058A000360307080B02F9003D03030D0B04F60055
:1058B0004203010D0B05F6004403030D0B04F60033
:0C58C000490307030B02FA00FF00000080
:04000005080001519D
:00000001FF
